00COTAHIST.2003BOVESPA 20040531                                                                                                                                                                                                                      
012003021202VALE3       010VALE R DOCE ON           R$  000000001050100000000105010000000010250000000001036800000000103210000000010321000000001043800142000000000000069500000000000720641400000000000000009999123100000010000000000000BRVALEACNOR0159
99COTAHIST.2003BOVESPA 2004053100000000003                                                                                                                                                                                                           