00COTAHIST.2003BOVESPA 20040531                                                                                                                                                                                                                      
012003021202VALE3       010VALE R DOCE ON           R$  000000001050100000000105010000000010250000000001036800000000103210000000010321000000001043800142000000000000069500000000000720641400000000000000009999123100000010000000000000BRVALEACNOR0159
012003021202VALE5       010VALE R DOCE PNA          R$  000000001000000000000100800000000009820000000000991800000000098200000000009701000000000982000306000000000000230500000000002286139000000000000000009999123100000010000000000000BRVALEACNPA3160
012003021296TMCP4F      020TELEMIG PARTPN *         R$  000000000024300000000002510000000000242000000000024300000000002510000000000242000000000025200013000000000000377522000000000000092105000000000000009999123100010000000000000000BRTMCPACNPR1105